:020000041000EA
:1000000000B52F4B212058609868022188439860E2
:10001000D860186158612B4B002199600221596109
:100020000121F02299502849196001219960352059
:1000300000F03EF80222904214D00621196600F02A
:100040002EF8196E01211966002018661A6600F054
:1000500026F8196E196E196E052000F029F8012195
:100060000842F9D1002199601849196000215960AE
:1000700017491848016001219960EB211966A021F8
:10008000196600F00CF800219960134911480160CD
:100090000121996001BC002800D11048004703B538
:1000A000996A04200142FBD001200142F8D103BD2E
:1000B00002B518661866FFF7F2FF186E186E02BDDB
:1000C00000000240000000180000070000035F006D
:1000D00021220000F4000018222000A001010010DD
:1000E0000000000000000000000000000000000010
:1000F0000000000000000000000000003E272A6011
:10010000274800E000202749886006C881F3088856
:10011000104725480068002839D112A40ECC0029C8
:1001200002D000F012F8F9E72049214A002000E04F
:1001300001C19142FCD11F4988471F4988471F4987
:10014000884700BEFDE701C901C29A42FBD3704750
:10015000F2EB8871904D0010B04D0010640100105A
:1001600090A31AE7B04D0010C0000020740A0020D0
:1001700064570010000004200000042064570010A1
:1001800000100420001004200000000070470C48FC
:1001900002F048FE0047EFF30580C0B27047000050
:1001A0000002001000ED00E0000000D0740A002002
:1001B000400D0020B50F001071030010D510001085
:1001C0005756000006005250ABB36053084D001064
:1001D00006005250861C0302184D001006005250B3
:1001E0005422A29D284D001005005250DE65F4688F
:1001F0006457001000000000000000000000000034
:100200000020042013010010C3020010C5020010DA
:10021000C1020010C1020010C1020010C102001092
:10022000C1020010C1020010C1020010C70200107C
:10023000C1020010C1020010C9020010CB02001060
:10024000CD020010CD020010CD020010CD02001032
:10025000CD020010CD020010CD020010CD02001022
:10026000CD020010CD020010CD020010CD02001012
:10027000CD020010CD020010CD020010CD02001002
:10028000CD020010CD020010CD020010CD020010F2
:10029000CD020010CD020010CD020010CD020010E2
:1002A000CD020010CD020010CD020010CD020010D2
:1002B000CD020010CD020010CD020010CD020010C2
:1002C00000BE00BE00BE00BE00BE00BEFFF763FF62
:1002D000103800BEF8B5C0460448054B10B583423F
:1002E00003D0044B002B00D0984710BD740A0020A7
:1002F000740A00200000000006480749091A8B1004
:10030000C90FC91810B5491003D0044B002B00D0F9
:10031000984710BD740A0020740A002000000000F5
:1003200010B5074C2378002B09D1FFF7D5FF054BFB
:10033000002B02D0044800E000BF0123237010BD51
:10034000740A002000000000304A0010054B10B570
:10035000002B03D00449054800E000BFFFF7CCFFA5
:1003600010BDC04600000000780A0020304A00108E
:1003700010B503F037FE00F007F8024803F076FDF1
:10038000002010BD304A001010B57B21034803F057
:100390001DFE0349034803F019FE10BD404A00103A
:1003A00015030000584A0010094A83009446402271
:1003B000634410B51C68C0006240C0241440802211
:1003C000520113431C60034B9C466044416010BDC6
:1003D00004C0014000400140F8B5CE464746914672
:1003E00080B5EFF3108772B6124E3368002BFCD045
:1003F000BFF35F8FCB08C55C0724C2182800012318
:100400000C409446E0401A000240904603420DD151
:10041000A34062462B431370BFF35F8F43463360A4
:1004200087F310880CBC90469946F8BD484600F00A
:1004300053FEC0462C0100D00021044B044ABFF3F8
:100440005F8F02C39342FAD17047C046000100D0CB
:10045000800100D0044A1078431CDBB2172B00D96E
:10046000102313707047C04688010020024B1868A3
:100470008007C00F7047C04600C00640F0B5C646B2
:10048000050000B506200E0000F0B4FF00284DD096
:10049000294B2A49EB185A4253418022D2039446F1
:1004A0005B421340264A63441360264A13601C00D3
:1004B0008A689443FBD1204B8021EB185A42534168
:1004C000214A5B0049000620995200F093FF310059
:1004D000C00002F001FD7F261C4B0640C709013613
:1004E00076086F629F4224D0AE622C239846802407
:1004F000A8444346A4011C4300230620236000F0C7
:1005000079FFB9018919800002F0E6FC6023EA6AEC
:10051000414653406E221A4080235B010B431A6010
:100520000B4B2B63102323600D3BAB6404BC904644
:10053000F0BDAC62D9E7C0460080FCBF00C00040FF
:1005400000E0004000F00040340B0020FFFF0000FE
:100550000103000083680B4810B58446614462447F
:10056000090112019A18591854684B6801209C42DD
:1005700001D802D00020C0B210BD12680B689A42A8
:10058000F9D8F7E7FFFFFF0FF0B557464546DE46BF
:100590004E46E0B583B01F000FAB1B780E9C0500E4
:1005A00092460193002C0DD10268947B002C56D00A
:1005B000116863008C461B196344033B5B7893739B
:1005C000002B54D0AA68E3B2944652469B46384B5F
:1005D0002E68E3181B0163441A600C9A5F609A60EE
:1005E0000D9ADA60D02380221B0612035A61630041
:1005F0001B19033B98460022336843449A705A7093
:100600001A70737B9946002B17D05A461900B068B0
:1006100073689847326800282BD14346D1184B465F
:1006200058465B004B44033BD31898704046125C1D
:10063000002A00D05A704B460B705B4673735246CB
:100640003B00287D00F01AFA061E02D0019B002B09
:1006500026D0109B002B28D020001E7000E0002028
:1006600003B03CBC90469946A246AB46F0BDD3735E
:10067000A8E74B465B004B44033BD1188C464146F0
:10068000484651188870D35C002B00D04B705B46F5
:10069000624613704B4620007373A145E0D1CEE74C
:1006A0005946286800F048FCD3E72000D8E7C04648
:1006B000FFFFFF0FF0B5DE464E4657464546002386
:1006C000E0B58DB00A93714B8200D3580B909946D8
:1006D00000239B464B46079300F080F9079C0600D9
:1006E0000F006268EFF3108572B61368002BFCD020
:1006F00022000794BFF35F8F2468637B9946002B29
:1007000000D170E09268624B90464B441B019844C4
:1007100043461A685B6810001900801BB941002924
:1007200068DD0B9800F0AAF9002300269846002700
:100730009A46079C6368BFF35F8F5A461A6085F339
:1007400010885346002B08D10028C5D10DB03CBC01
:1007500090469946A246AB46F0BDD0238022802128
:100760001B06920309035A6199619A610A9B4146EB
:1007700018024B461843D047089009916268EFF37E
:10078000108572B61368002BFCD00794BFF35F8FFF
:100790000899099A002A49DB114303D0079B1B697A
:1007A000002B5ED1079B1B68DA7B002A07D0510023
:1007B0008A1819688C4649466244033A51704A4681
:1007C000DA734B46079A013BD168CA5C0132CA54BE
:1007D0005B46079A13615368BFF35F8F5A461A60EE
:1007E00085F3108878E700230026984600279A466C
:1007F00000209EE7002902D1002800D091E70121C6
:10080000200000F0FBFA43461E685F689B68079A69
:100810009A464346DB689846D3684B44013B1B78B5
:100820000A931B0203431361002082E72369002B14
:10083000B8D033003C005B1A94411A002300A74251
:1008400019D89F421BD05946049101210391494672
:10085000029141460191514607980091FFF794FE9D
:10086000B6E700F0BBF8089A099B06000F00921942
:100870007B419942E5D901225242D317E3E79642E0
:10088000E1D901225242D317DDE7C046100B002008
:10089000FFFFFF0F70B5184C2368002B00D070BD10
:1008A000032000F08FF8032000F04AF913490320D9
:1008B00000F09EF8182003F0B1F90500FFF7CAFD1B
:1008C0000F4B2A009C46604480000E49686010204F
:1008D00000F09EF910212860102003F0A3F90121F7
:1008E000A860102003F09EF903232B75064BE860E7
:1008F000DD602560D3E7C046FC0A0020B506001085
:100900004000003455050010100B0020F0B5D6460D
:100910004F464646C0B5EFF305833F22134018000B
:100920001038EFF3108C72B6204D2A68002AFCD0E4
:10093000BFF35F8F0122110081401D4C8846616327
:100940001C4917000E788A463100C1400F400A4208
:1009500015D019498200646A51588C4219D3174B3B
:10096000D25843469E4353461E70BFF35F8F002309
:100970002B608CF31088002A06D0904704E0BFF368
:100980005F8F2F608CF310881CBC90469946A2465E
:10099000F0BD0B4A9B00904643441A681A60BFF3AF
:1009A0005F8F00232B608CF31088EDE7280100D0C7
:1009B00000400540320B0020200B0020C40A00201C
:1009C000D03F054010B50100024A0348FFF704FD7F
:1009D00010BDC046784A0010300B0020034B596A06
:1009E0000A00986A596A8A42FAD170470040054065
:1009F00070B504000D00EFF3108672B61A4A136842
:100A0000002BFCD0BFF35F8F002D1BD0200000F027
:100A10004FFD164981420AD0200000F051FD01210E
:100A2000200000F033FD0123A340114A1360114B55
:100A3000A400E550BFF35F8F00220B4B1A6086F3D2
:100A4000108870BD0B4BA200D5500122A2400A496C
:100A500020000B7893430B70044900F05BFD0021EC
:100A6000200000F013FDE5E7280100D00D0900107B
:100A700038600540C40A0020320B0020F0B5CE4695
:100A8000474680B52A4C616A0D00A66A616AA94290
:100A9000FAD18B4207D804D001200CBC904699466D
:100AA000F0BDB242F8D9EFF3108872B6214C21683C
:100AB0000029FCD0BFF35F8F012585401C4C1E4EE2
:100AC0006563E9B28C463178894661464F463943C1
:100AD0003170011D89000A51184980004350216A74
:100AE000002029420CD02000616A0C00876A416A0C
:100AF000A142FAD18B4202D80AD1BA4208D90020C9
:100B0000BFF35F8F00220B4B1A6088F31088C4E795
:100B1000074B4F461D625D6363469F43012037705C
:100B2000BFF35F8F0022034B1A6088F31088B4E78D
:100B300000400540280100D0320B0020200B00208F
:100B400010B5EFF3108472B60A490B68002BFCD085
:100B5000BFF35F8F01238340074A0848136202787E
:100B60009A430270BFF35F8F00230B6084F31088F9
:100B700010BDC046280100D000400540320B0020C7
:100B8000024B9C466144890001607047400000347C
:100B900010B50400FFF75EFC01002000FFF7F0FF36
:100BA000BFF35F8F10BDC04670B505000E00140086
:100BB000002924D0002A24D080686B6898472968CF
:100BC00000280ED063001B197200033B9219CB184A
:100BD000033A9E7088188A5C002A14D10470300091
:100BE0000EE073009B196200033B1219CB18033A05
:100BF0009C7088188A5C002A00D05A700670200009
:100C000070BD0800FCE75A7004703000F8E7C04679
:100C1000F0B5C64605000F0000B5102101201600F2
:100C200003F000F8EBB204000373032147602800CF
:100C3000984602F0F7FF002363730133A373434622
:100C4000FF21E373FE232060A66029402B4206D0DB
:100C5000421CFD3B0133137003328B42FAD34B002D
:100C600059180023401803384370200004BC9046F4
:100C7000F0BDC046F8B5CE46474606000C0080B52C
:100C8000002907D04D0003686D18033D5A195778A5
:100C9000002F04D120000CBC90469946F8BD790085
:100CA000C919033988464344597889460021597047
:100CB000517073683A0021008068984733680028B3
:100CC00014D042469A18947059195B5D002B00D0DD
:100CD00053700F70270049463000FFF7CBFF3900F3
:100CE00002003000FFF760FF0400D3E742464146B0
:100CF0005D19AF709A185B5C002B00D06B7014709C
:100D0000E9E7C046F0B557464546DE464E46E0B5F3
:100D10000D006B0001685B19DF1E0400C85D83B025
:100D20000192CA1900284CD043001B18033BCB1872
:100D30005E78B446002E16D1019E002E3ED1E67B91
:100D4000002E04D073009B19CB18033B5D70E57334
:100D500000282FD10023537003B03CBC9046994625
:100D6000A246AB46F0BD72006244033A89184A7845
:100D7000904600224A7091465A70010032002000CD
:100D8000FFF712FF43468246002B07D05B00216825
:100D90004344033BCB185A78002A16D142465146A9
:100DA0002000FFF701FF2168019BCA19002BC6D064
:100DB0000028CFD043001B18033BCB1800219970AB
:100DC000C8E7019B002BC5D1B9E750008018033854
:100DD00009184878834648464870587041462000B4
:100DE000FFF7E2FE594680462000FFF743FF4146E9
:100DF00002002000FFF7D8FE8046CFE7F0B54E4650
:100E00004546DE465746E0B5467B0400750000685F
:100E1000AD19033D83B00191415D421900294ED0C7
:100E20004B005B18033BC3185F78BC46002F18D1FA
:100E3000019D002D40D1E57B002D04D06B005B1996
:100E4000C318033B5E70E673002931D100233000E4
:100E50005370617303B03CBC90469946A246AB46C2
:100E6000F0BD7A006244033A80184278934600222B
:100E7000427091465A7020003A00FFF795FE5B469B
:100E80008046002B07D05B0021685B44033BCB18F6
:100E90005A78002A17D15A4641462000FFF784FEAF
:100EA000019B010020684219002BC4D00029CDD03D
:100EB0004B005B18033BC31800209870C6E7019BEA
:100EC000002BC3D1B7E750008018033809184878C1
:100ED000824648464870587059462000FFF764FE25
:100EE00053468346002B07D05B0021685344033BE5
:100EF000CB185A78002A06D1594652462000FFF7EF
:100F000053FE8346C7E75000801803380918484647
:100F10004F784870587051462000FFF745FE390061
:100F200081462000FFF7A6FE494602002000FFF799
:100F30003BFE8246E0E7C04670B5040000292CD095
:100F4000437B8B422ED00568480040180338281890
:100F50008278002A21D053009B18033BEA5CEE18EC
:100F60008A4202D11BE0002A08D053009B18033BA1
:100F7000EB185A788A42F6D142785A700023002240
:100F8000837043702000FFF7BDFE617B02002000EC
:100F9000FFF70AFE6073012000E0002070BD437877
:100FA0003370EBE700221900FFF7ACFE60730120FD
:100FB000F4E7C0462B4B2C4A70B51A602B4A2C4BD9
:100FC0002C491A6010008B689843FBD12A4C2B4B9C
:100FD0009C4209D2013B1D1BAD080135AD002D1906
:100FE00008CC9847AC42FBD100F094F8244A204B3F
:100FF0001A60204A9368DB018033FBD14022214BE9
:10100000214C9A675A671A67DA66204B9C420BD2CA
:10101000013B1D1BED080135ED002D1920000834A2
:10102000FFF7B6FDAC42F9D1194C1A4DA168C022A8
:10103000280002F009FEA560FFF7FEF900F0AAFB08
:10104000FFF728FC144C154B9C4209D2013B1D1B99
:10105000AD080135AD002D1908CC9847A542FBD14C
:1010600070BDC04600E00040BFCDFFFFFE7F3C00EA
:1010700000F0004000C00040600A0020700A00201C
:10108000FFFFFF0100F00140580A0020600A002025
:1010900000ED00E000000020700A0020740A00202B
:1010A000094A03001068002805D00849C3188B427C
:1010B00007D21360704706480449C31810608B427A
:1010C000F7D301204042F5E7080B00200000042080
:1010D000400D002000BEFDE70FB400B5084883B006
:1010E00002F0C4FE049B002B07D005A91800019153
:1010F00001F078FE034802F0B9FE00BEFDE7C046ED
:101100009C4A0010744A001010B50148FFF7E4FF34
:10111000AC4A001030B50C2083B000F071F9FFF735
:10112000A5F900280ED09A4B9A4A1A605A609A6024
:10113000DA601A615A619A61DA611A62964A5A62F1
:1011400003B030BD954CA06700F062F90122944BCA
:101150001A60636C012BFCD10322924B1A608F4AF8
:10116000936B012BFCD1C0228F4B92011A608F4BE5
:101170008F491A6010008B689843031EFAD102242D
:1011800001218C4A8C480633009400F055F9052360
:101190008A4A01218A48009400F04EF9894B5A6826
:1011A000FF2A02D8802252005A608022784C7D4B60
:1011B00021691201834D1A60002905D0606901F090
:1011C0008BFE01300138FDD1E0217E4B02201A68F0
:1011D0001140802252012A431160196848400321BE
:1011E0000140116004219A681142FCD080228021C4
:1011F00092012A4309011160802252005A60724B09
:101200002361724B5968FF2900D85A6003226F4846
:10121000634B01211A60020093681942FCD0E0255B
:1012200013681D4080235B0103431D6012684A4020
:101230000321114019600221644A93681942FCD0CD
:10124000802380219B010343090119608021604BA9
:101250004900516063615F4B5A68FF2A00D85960AA
:1012600080225D4BE16912015A4D1A60002905D0B8
:10127000606901F031FE01300138FDD1E0225549AD
:101280000B681A4080235B012B431A608023802265
:101290009B012B4312011A6080223E4B52004A6090
:1012A000E3614E4B5968FF2900D85A6080224C4BAD
:1012B000216A1201494D1A60002905D0606901F0C8
:1012C0000BFE01300138FDD1E02244490B681A4081
:1012D00080235B012B431A60802380229B012B43D8
:1012E00012011A60802380225B004B60294BD202DE
:1012F00023623C4B5968914200D25A6080223A4B9B
:10130000616A1201374D1A60002905D0606901F049
:10131000E3FD01300138FDD1E02232490B681A406B
:1013200080235B012B431A60802380229B012B4387
:1013300012011A608023DB024B60174B63622B4B58
:101340005A68FF2A02D8802252005A608022284B15
:10135000A1691201254D1A60002905D0606901F0CC
:10136000BBFD01300138FDD1E02220490B681A4055
:1013700080235B012B431A60802380229B012B4337
:1013800012011A6080235B004B60114BA361D7E60A
:10139000D40A0020006CDC021BB700000080004073
:1013A0003CB0004030B0004000E0004000F00040A1
:1013B00000C00040002F68590080024000389C1C8B
:1013C00000C0024030800040001BB7003C8000405D
:1013D000405973075480004054B000406080004082
:1013E00060B000406C8000406CB00040488000401D
:1013F00048B00040014B8000C0587047D40A00201C
:101400008023024A9B000343D3627047008005405B
:10141000AA23064A1B0113602F230549D360054BFD
:1014200019605368002BFCDA7047C0460040024048
:1014300000B0FA0000600240F8B51D0006AB1E784F
:1014400001235B42436000230400836001600C20A1
:10145000170001F041FD4101091A8B01591AC90019
:1014600009188901380001F037FDC021231D8901C9
:1014700019432123A0600B602268002AFCDA0823AC
:101480002D0436032E43E6600B60F8BD0123834034
:10149000002904D0034A1360034A13607047034ACB
:1014A0001360FBE780E200E000E100E080E100E0A3
:1014B000024B10309B688000C058704700ED00E080
:1014C00070B50D00EFF3108672B60F4A1368002B4B
:1014D000FCD0BFF35F8F0D4B10309B6884001B590D
:1014E0000B4A934203D09D4201D0FFF70DFE074BFC
:1014F0009B681D51BFF35F8FBFF35F8F0022024BCC
:101500001A6086F3108870BD240100D000ED00E061
:10151000CD020010F0B5DE4657464E464546E0B5D2
:101520000C0083B0EFF3108A72B65F4A1368002B89
:10153000FCD0BFF35F8F1022914681444A465B4B3B
:1015400096009B689D595A4B98469D4205D0A542EE
:1015500016D0584FEB1B2F2B14D9544B9B689D5121
:10156000BFF35F8FBFF35F8F00224F4B1A608AF388
:10157000108803B03CBC90469946A246AB46F0BDED
:101580001D00EAE7012383409B465A464A4B1B68ED
:101590001A4000925A46494B1A60BFF35F8FFEF71C
:1015A000FAFD0190002803D0814501D0FFF7ACFD82
:1015B0000123290099438B68A34269D00A0007E000
:1015C00043001B189B00FB189868A04211D01A001A
:1015D000062010560028F3DA009B002B05D05A464F
:1015E000374B1A60344B1A60B7E75A46334B1A60D0
:1015F000B3E706201856002822DB420011188900A4
:101600007C188846A1689960E179D97106216156F4
:101610009971A1797F292BD8A488F91A640524151A
:1016200044440919E0240905490D24022143998005
:101630001218244B9200BF181A781870BA71CBE7B1
:101640000198002817D1FF3090711F4890801D4AE3
:10165000CF1B1078BF109871BB00DB1919015B1804
:1016600019025B1819045B185B00DB191370B3E7F0
:10167000BD210902DBE7154A1549D21A083A500282
:10168000400D01439980134952080A43DA80A3E7C9
:10169000062008560B000028AFDA019A002AEAD18A
:1016A0000B004546D3E7C046240100D000ED00E022
:1016B000CD0200108C01002000E100E080E100E09C
:1016C00080E200E0310B002000BDFFFFC6010020DA
:1016D00000F0FFFF00F8FFFFF8B501250400054307
:1016E000FEF759FDEFF3108672B6244A1368002BFB
:1016F000FCD0BFF35F8F224F8000E11B89108A006E
:1017000052181301D2181302D2181304D3181D4A09
:101710005B005B1891680958A9421CD00622BA5692
:1017200093421CD01222BA56934222D01E22BA569D
:10173000934220D02A22BA5603219A4210D0124A4C
:1017400011781370A171BFF35F8F00220B4B1A60E9
:1017500086F31088F8BD92680C491150EFE700211C
:101760004A005218FF219200BA18917108499180DD
:10177000E5E70121F4E70221F2E7C046240100D0A9
:101780008C01002000ED00E0310B0020CD020010A4
:1017900000BDFFFFF0B500220324FF2780262000B4
:1017A0003D00094B11009C461040C0008540A143FC
:1017B00061440B680132AB43350085402B430B601D
:1017C000202AECD1F0BDC04600E400E07047C046DE
:1017D000F8B557464E46DE464546E0B51F000A9B23
:1017E00005009B460D9B0E00914692469B0718D123
:1017F0000B9B0C9A934214D213000B9AB8469B1A77
:101800004B444C460F0006001D00220043460134A5
:1018100039002020B047AC42F7D1AA4635003E003F
:1018200047460B9B002B38D09A441C00D0465346A9
:101830001A1B5B46013C185D31003B00A847002C99
:10184000F5D10D9B9B0721D543464A469C1A0C9B1C
:10185000A3421BD93A009A464F469146E2194B469D
:10186000310020200134A8475445F7D343460C9952
:10187000DB1B0133B9460022994203D343464A1E7B
:101880004A44D21A434690460133984440463CBCF1
:1018900090469946A246AB46F8BDD046D1E7C04631
:1018A000F0B54F464646D646C0B584B098460EAB16
:1018B0001B78129F994694460D9C109B119EBA0767
:1018C00025D4002E69D19C4200D3C2E001223A40C7
:1018D00092461F2C00D9BBE00C9A551E302201E025
:1018E000202C03D001342A55A342F9D85246002AAD
:1018F0000DD0B4420BD21F2C62D80C9A551E302248
:1019000001E0202C5CD001342A55B442F9D1FA060A
:1019100035D57A055DD4002C57D10F9B102B00D103
:101920007CE00F9B022B00D18DE030230C9A012428
:1019300013704B46002B27D02D230C9A13550134DE
:101940000C9B624600930397434602960194FFF76F
:101950003FFF04B01CBC90469946A246F0BDBB06B2
:1019600063D4202CECD00C9B1A190134782313700B
:10197000202CE5D030220C9B1B191A700134202C2E
:10198000DED04B46002BD7D17B0735D43B07D7D5CC
:1019900020230C9A13550134D2E7012215003D4053
:1019A000AA463A4220D04A46002A2AD10C323A426C
:1019B00027D19C429DD21F2C00D88DE7202E19D90B
:1019C0002024FA06BCD57A0503D4A3421BD0A64234
:1019D00019D00F9B102BC2D0022BC9D1202CAFD015
:1019E0000C9B1B19013440E09C4200D38FE71F2C55
:1019F00000D871E720248AE72B230C9A1355013471
:101A00009EE7013ED5E7631E012C00D185E70F9AC2
:101A1000102A20D0022A25D01C00ABE7BB060DD42B
:101A200078230C9A01241370A4E7202C00D187E7B7
:101A300058220C9B1B191A70013499E758230C9AF1
:101A40000124137096E70C9A60330124137091E718
:101A5000202400265BE7023CBA06E9D40C9A12194E
:101A60001C0083E70C9A9246534462221A707FE767
:101A700010B5002800D110BD02F0EAF9FBE7C0461E
:101A80000B0010B5002802D049681B68984710BDAC
:101A9000F0B5DE4657464E464546E0B59BB09A4601
:101AA000249B8B469946259B0B9098460C92434667
:101AB0004A464846414601F0CCFC002800D0A3E14C
:101AC000012248464146E24B524201F0BDFC00284B
:101AD00000D099E1012248464146DE4B524201F0D6
:101AE0009DFC002800D08FE100220023484641469B
:101AF00001F094FC002800D0DEE14A4643460A92F9
:101B000009938023289ADB001A401192289A1A42DE
:101B100001D106232693D04B099F9C467800400DA7
:101B2000604401F0A9FCCD4ACD4B01F035FCCD4A13
:101B3000CD4B01F01FFC3B03CC4A0A9E1B0B1A4302
:101B400004000D0030001100C94B0022099701F07C
:101B500008FCC84AC84B01F01FFC02000B00200023
:101B6000290001F007FC01F09FFC0D9001F084FCBE
:101B7000C24AC34B04000D0001F00EFC0022C14B11
:101B800001F0F8FB01F090FCBF4A0600BF4B2000BB
:101B9000290001F001FC040030000D00109601F056
:101BA0006BFCBB4ABB4B01F0F7FB02000B002000B3
:101BB000290001F0D6FB02000B0006000F0001F027
:101BC000EBFB320004000D003B003000390001F057
:101BD000D1FB00220E900F91AF4B2000290001F0A5
:101BE000D2FB0022AD4B01F0C5FB02000B00200030
:101BF000290001F0C8FB0022A94B01F0BBFB020049
:101C00000B002000290001F0BEFB0D008021040024
:101C100032003B000020C90501F0A3FB02000B00CD
:101C20002000290001F0A6FB02000B000E980F997E
:101C300001F0A9FB00228D4B01F09CFB109B994AFF
:101C40001C00944664440022230501F0A5FB060015
:101C50000F0002000B000A98099901F0DFFB002831
:101C60000AD00D9B3000013B39000D9300228B4BB5
:101C700001F089FB06000F000D9DC6242B00633385
:101C80009C42A441289B644204341B051FD5864A0C
:101C9000864B0A98099901F0CFFB002800D1CCE0CF
:101CA0000022834B0A98099901F0B8FB002800D163
:101CB000C3E0269A954200DA0BE1002326938023A5
:101CC000289ADB001A430023002428920D93279BB7
:101CD0000025A34200D91D1B0223289A1A40109206
:101CE000289A134203D0634263415B421D400D9B1F
:101CF000002B07D00A98099932003B0001F043FB02
:101D00000A900991002200234846414601F086FBD3
:101D1000002805D080200006844609996144099175
:101D2000289A644B0B9E13400493269B0A9A0293B5
:101D3000099B0395009201935946534630000C9A33
:101D400000F0CCF80500002C6FD0289B2A009806E4
:101D50001F23C01798436B1C98465946534665305D
:101D6000B0470D9B0026DA179D18DB0F99465540AA
:101D7000013C01E0202E13D00AAA94461F2328001C
:101D800063440A2101369F1901F0A6F830313970F9
:101D900028000A2101F0A0F82F000500092FE9D83A
:101DA00005230693002304930A3303934B460196BD
:101DB0000B9E029312AB00934246534659463000A5
:101DC0000594FFF76DFD109B0500002B2DD00C9B9B
:101DD000279AC41AA24228D981465D469846170020
:101DE000434629001A19202053460134B047A74220
:101DF000F6D84D460C9927986B1A01330022984269
:101E000061D20135551910E0289B4A460493279B5F
:101E100059460393269B0B980293434600920193E5
:101E200053460C9A00F05AF8050028001BB03CBC41
:101E300090469946A246AB46F0BD269B002B00D1AA
:101E400045E7119B5A1E9341269AD31A26933EE7E3
:101E5000FFFFEF7FFFFFEFFF01FCFFFFFB799F50CC
:101E60001344D33FB3C8608B288AC63F0000F03FBD
:101E70000000F83F61436F63A787D23F71A37909E0
:101E80004F930A400000E03F1655B5BBB16B0240CE
:101E9000EF39FAFE422EE63F00002C4000002440BD
:101EA00000001840FF0300002D431CEBE2361A3FF0
:101EB00080842E41FFF7FFFF4B460A9380231B06C9
:101EC000434409931DE60A008446013A6244521BCA
:101ED00097E7501B431E2693F1E6C046F0B54E46E9
:101EE000DE4657464546E0B597B09946209E219F6D
:101EF000229B8346984607910C923B0032003000AB
:101F0000390001F0A6FA002800D0C1E1012230001A
:101F10003900CA4B524201F081FA002800D0E0E0BB
:101F2000012230003900C64B524201F08DFA0028E0
:101F300000D0B6E0002230003900C24B01F084FA34
:101F4000002800D098E0002230003900BE4B01F09C
:101F500065FA002800D08FE000220023300039000D
:101F600001F05CFA002800D0B0E000230D93249B20
:101F70005B0501D40623984608AB9C461722002433
:101F800030234146624404E0013413550139202CCA
:101F900001D00929F8D888463000390001F084FAC8
:101FA0004346DA00A94B05009B181A685B68089243
:101FB000099301F061FA02000B003000390001F0D2
:101FC000D0F9089A099B01F0E7F90A900B9101F00A
:101FD0008FFA824601F04CFA02000B000A980B9926
:101FE00001F0BFF900229A4B0A900B9101F02CFAF4
:101FF000002800D1C0E001239C46E244504601F095
:1020000037FA02000B000898099901F00DFA002830
:1020100002D000239A4601354346002B69D008AB15
:1020200017269C4608956644554614E001235B42FA
:1020300043440A2128009A4600F04EFF0134303113
:102040003719397028000A2100F046FF092D00D801
:10205000D5E0D0460500202CE8D10323249A134074
:10206000012B00D100E10EAB9846249B0194039311
:10207000239B029343461EE0249B58460493239BD4
:1020800000960197039343460C9A029307994B4697
:10209000FFF7FEFC17B03CBC90469946A246AB4603
:1020A000F0BD249B5B070ED403226A4B2499019256
:1020B000039123990291009358464B460C9A079935
:1020C000FFF786FBE6E70422634BEFE73B003200B5
:1020D0000020002101F045F9012306000F000D93B7
:1020E00045E7249B0393239B0293042301935B4BBB
:1020F000E1E7280001F0C0F902000B0030003900D0
:1021000001F02FF9524B002206000F0001F086F972
:102110000EAB984600280AD10022300039004C4B03
:1021200001F092F9002802D1EB0700D50135202CEF
:1021300032D008AA94461723280063440A210134A8
:102140001E1900F09DFE3031280031700A2100F088
:1021500097FE051EEBD10323249A1340012B00D1D7
:1021600091E01F2C00D980E70D9B002B3BD02D2345
:1021700042461355013478E700220A980B99344BF4
:1021800001F04CF9002800D046E75346002B67D1F8
:1021900001239C46E2443FE70323249A1340012B8A
:1021A00000D062E7239B002B00D15EE70D9B002B44
:1021B00003D1249A0C33134202D0239B013B239377
:1021C000239B9C42CDD208AB9C461722302362440D
:1021D0001F2C06D82399013413558C42C1D0202CD2
:1021E000F8D1202441E7249B5B0721D4249B1B07C3
:1021F00000D43AE7202342461355013435E75746C9
:10220000089D202C37D0220030214046002F08D0D6
:102210000132B154202A43D0D3431B191B18002B81
:10222000F6D10EAB98462E234146541C8B547EE7C4
:102230002B2342461355013417E7C046FFFFEFFF3B
:10224000FFFFEF7F65CDCD4165CDCDC1B04C001016
:102250000000E03FB84A0010BC4A0010C84A001015
:10226000DB0700D4D8E693E7239B002B00D1FAE6E6
:102270000EAB98469AE70323249A1340012B00D013
:10228000F1E60EAB9846239B002B00D169E78DE762
:10229000249B0393239B029303230193064B0AE79A
:1022A0000323249A20241340012B00D0DBE6239B38
:1022B0002024002BDCD1D6E6C44A0010F0B5DE465F
:1022C0004E4657464546E0B59FB01C00289B9346B6
:1022D0000993CF4ACF4B894608901A60002900D154
:1022E00016E2002320789A46002800D118E2260042
:1022F0001D004C460AE02A006F1C5B46089D210029
:10230000A8473D000136307800287AD02528F2D140
:1023100010239A46083B9946043B9846023B00210D
:102320009C46721C107816000300203BDBB2102B79
:1023300003D8B94F9B00FB589F460300303B092B45
:102340003CD900230A932A2800D171E00023984643
:102350002E2847D00300683BDBB2122B1FD8AF4AB0
:102360009B00D3589F46012301321943DAE76346A5
:1023700001321943D6E7434601321943D2E75346A7
:1023800001321943CEE74B4601321943CAE7707850
:102390006C2800D1BFE280235B00194301360300A3
:1023A000253BDBB2532BA6D89D4A9B00D3589F46B2
:1023B00080235B00707819430136F0E700270300A3
:1023C000B800C01901364000C018337830381A0000
:1023D000303A0700092AF3D90A90180000239846DA
:1023E0002E28B7D180237078DB0019430300303BDF
:1023F000721C092B00D895E12A2800D1A6E116000D
:10240000A8E7A146AA462C00D34503D801235B4286
:102410005B449A465B46524649460020089DA847C1
:1024200020001FB03CBC90469946A246AB46F0BD8A
:10243000099B40CB0A96002E03DB50780993561C6B
:1024400084E72838014370420A9009935078561C5B
:102450007CE7782800D1D4E1582800D168E26F28C1
:1024600000D152E3622800D1D8E110230A009A4338
:102470000B92692801D000F0A2FC0A230C934B05B3
:1024800000D4D5E101230B9A9A430B92692800D11D
:10249000CEE1642800D1CBE10B9A802311009B0090
:1024A00019408A461A4200D032E3802311005B00B3
:1024B000194089461A4201D000F002FC13005B0665
:1024C00000D510E30B9B1B0601D400F06EFC099BAA
:1024D00004CB1204120C924609935346002B00D0F1
:1024E00064E30B9A1033110099430B91520500D409
:1024F0005CE3002399460B9B06930A9B0593434696
:1025000004930C9B03930023DEE27078682800D1CB
:1025100007E280230136194341E780239B0070784E
:10252000194301363BE7462800D174E10722099B95
:102530000491073393430A9A190003924246029288
:102540000CC908980092019309912A005B4621006A
:10255000FFF7C4FC01360500D5E6099B1A0008CA3E
:102560009146002B00D105E1212211438A460EA895
:1025700084461F216144099500220F27A4460D00BF
:1025800002E0202A0CD00B003C001C402000373019
:10259000092C00D807380132A85419090F2BF0D89C
:1025A0006446099DF0E08B0700D4D1E1099B2A0025
:1025B00099466B1C98464B4601CB21009946089FD3
:1025C0005B46C0B2B8470A9B9C466544012B00D8C5
:1025D00090E2B2465E464746A846089D3A00330060
:1025E000013721002020A8474745F7D1B3464B4685
:1025F00056463D000993013685E62A006F1C5B466E
:10260000089D21002520A84701363D007BE6C046F5
:10261000BD2200100C0B0020D04A0010144B0010FB
:10262000604B0010099B04CB994643460992002B4E
:1026300000D097E013789C46002B00D1B3E302232F
:102640005B425A1C099B924618000A9F0B92504409
:1026500002E0834200D169E15A780133002AF8D1BF
:10266000099A0A979B1A0B9380230A00DB001A40F1
:102670000C92194204D00B9B434501D943460B935E
:1026800002231A000A400D920B4200D184E16046F9
:10269000002823D00C9B002B00D124E1A844C24683
:1026A000099B57465B1B9846089BB2462A002600AA
:1026B0005C469B4609E023003100551CD847434641
:1026C000585D002800D13FE12A009742F3D1A3468C
:1026D0003D00340056460D9B002B69D00B9B0A9998
:1026E000A846994264D98C466544ED1A089B474632
:1026F0009A46B04626005C463A0023000137310076
:102700002020D047AF42F7D1A346340046464FE0E1
:10271000D24B2078089300239A46002800D0E6E5A3
:10272000002471E6434606000A9F9800C018013253
:10273000400080191678030030003038303B0928FB
:10274000F3D93000984616000A9703E6099B023633
:1027500004CB9046D2434046D2171040804609939E
:102760003078F7E513789C46002B00D11AE34346F6
:10277000013B66E710220800904311321043824665
:102780000022490500D4F2E6534606930823059338
:1027900043460493102303930023029316AB019244
:1027A00000932A005B4621000898FFF779F805009E
:1027B0004B4601360993A6E5202302009A43472A97
:1027C00004D180231B01194302239843452801D1DA
:1027D000202319430722099B0491073393430A9A44
:1027E00019000392424602920CC908980092019384
:1027F00009912A005B462100FFF74AF901360500DE
:1028000081E510230C930C230A009A430B924B058D
:1028100000D43BE636E62023194387E602230C93D7
:102820000B910B996428EED10B9B5B0500D529E633
:102830000B9A802311009B0019408A461A4200D04F
:10284000CEE0802311005B00194089461A4200D077
:10285000DBE113005B0600D51DE10B9B09991B060C
:1028600000D499E208C91BB2D8171A18424092B294
:1028700009919246DA0F1292002B09D1802310227F
:102880000B99DB000B4091430B91002B00D012E120
:102890000B9A6123920600D541230EA91F228C4674
:1028A000DBB262440A3B57461395A2464D460C9C48
:1028B000B1460D9316000AE03033DBB20135735593
:1028C000A74200D21CE1202D00D119E10700210010
:1028D000380000F001FBCBB20929EDD90D9A9446DE
:1028E0006344DBB2EAE7099B5F465B1B98460A9BA1
:1028F000B3469A462600089C2A003B003100A047B8
:1029000043460135585D0028F6D1534634000A93FA
:102910005E46BB46DFE6C0239B00B0781943023613
:102920003DE5C023B0781943023638E50A979BE6A7
:102930000C230A009A4314331A4310230B920C936E
:102940004B0500D4A8E59DE5A34634005646C2E6F3
:102950000A9A012A00D82EE26B1E9F18089BB046E7
:10296000994626005C462A002300013531002020CC
:10297000C847BD42F7D1A34634004646099B3A00FA
:1029800001CB210098467D1C5B46089FC0B2B8472A
:10299000434601360993B6E40B9A0A98531C9042B9
:1029A00000D80AE243199B1A1F00089BB246260072
:1029B0005C469B462A002300013531002020D84781
:1029C000BD42F7D10A9BA34601330B93099B340008
:1029D0001B7856469C466046002800D05AE6E7E63B
:1029E0000722099B07339343013294469C44624675
:1029F0005F6809921A68FB17109311931098119948
:102A0000030053400E930B007B400F9394460E9AA5
:102A10000F9B121A8B410E920F93FB0F624612937B
:102A200000233A439A463DD00B9A6123920600D583
:102A300041230022DBB20EA90A3B8C4691460D933E
:102A400043461F326244139515964D460E9E0F9FC6
:102A5000A14690460C9C14930FE0C046CD17001081
:102A60003032D2B2434601355A55BA4500D17CE1E5
:102A7000202D00D17CE106000F0022000023300051
:102A8000390000F06FFAD2B2092AE9D90D9B9C46B1
:102A90006244D2B2E6E7FF23099904C913401A0041
:102AA0000991E6E60B9A1033110099430B915205F8
:102AB000BAD5002399460B9B06930A9B0593434680
:102AC00004930C9B0393129B02934B46019316AB0A
:102AD0002A00009321005B460898FEF7E1FE0136CC
:102AE0000500FFF710FCFF22099B02CB11408A462C
:102AF0000993F2E44B46454609930136FFF703FC80
:102B00004E465446A946139DD5E708230C9387E605
:102B10000722099B07339343013294469C44624643
:102B200009921A685B6810009A46130052461343D4
:102B300007D10B9A1033110099430B91520500D520
:102B4000D7E40B9A6123920600D541230022DBB221
:102B50000EA90A3B8C4691460D9343461F326244B0
:102B600057461295A2464D460400B14690460C9E2B
:102B700013930DE03032D2B2434601355A5500234B
:102B8000BB4200D1FDE0202D00D1FDE004000F008C
:102B9000320000232000390000F0E4F9D2B2092A03
:102BA000E8D90D9B9C466244D2B2E5E70B9A6123BB
:102BB000920600D54123DBB20EA90A3B1F228C46A8
:102BC0000D93230062445446129517004D469A46D1
:102BD000B1460C9E08E03033DBB201357B55B44280
:102BE0000ED3202D0CD004003100200000F074F929
:102BF000CBB20929EFD90D9A94466344DBB2ECE7D6
:102C00004E465446A946129D75E4099B1A0008CA0F
:102C1000D91713925A184A409146DA0F1292002B94
:102C200008D1802310220B99DB000B4091430B91BC
:102C3000002B2BD10B9A6123920600D541230EAABB
:102C40001F279446DBB20A3B0D956744554609930E
:102C5000A2464C46B1460C9E08E03033DBB201354B
:102C60007B55B4420ED3202D0CD00400310020003F
:102C700000F032F9CBB20929EFD9099A944663449E
:102C8000DBB2ECE74E465446AA460D9D0B9B2A004C
:102C900006930A9B21000593434604930C9B0898D6
:102CA0000393129B013602935346019316AB009394
:102CB0005B46FEF7F5FD139B05000993FFF723FB29
:102CC000099B04CB91461293002A08D1802310223D
:102CD0000B99DB000B4091430B91002B2BD10B9AEE
:102CE0006123920600D541230EAA1F279446DBB22A
:102CF0000A3B0D95674455460993A2464C46B1469A
:102D00000C9E08E03033DBB201357B55B4420ED364
:102D1000202D0CD004003100200000F0DDF8CBB2F3
:102D20000929EFD9099A94466344DBB2ECE74E4691
:102D30005446AA460D9D0B9B2A0006930A9B210030
:102D40000593434604930C9B089803930023029336
:102D50005346019316AB00935B46FEF7A1FD129B11
:102D6000050009930136FFF7CEFAB44200D87FE69A
:102D7000149B4C460E960F97A9469846159E139D98
:102D800099E6A64200D8FEE6139B4E469846A94611
:102D90005446129DFFF7AFFB08C9D8171A184240D6
:102DA000099166E500230B935EE4099B04CB9246F0
:102DB0000993FFF792FB2F00E0E50B930BE6063B30
:102DC0000C932EE500B585B003910121029000938C
:102DD000034813004A4202A9FFF770FA05B000BD8C
:102DE000811A001010B5094A0300146884B0002C41
:102DF00008D0012200910648524203A9A0470120B1
:102E000004B010BD01F032F80020F9E70C0B0020EF
:102E1000711A001001480421014B1847E0010020FD
:102E2000452E0010142310B50100188804331B88A8
:102E3000984710BD162310B50100188802331B886F
:102E4000984710BDF0B5C64600B5002916D014232A
:102E50000400012598461827890046184346216832
:102E600018883B88984701C4431E9841404205405A
:102E7000A642F3D1280004BC9046F0BD0125F9E735
:102E8000144A936F9B0815D29066D166002905D02D
:102E9000FFE7FFE7FFE7516F106F704704B5802130
:102EA0000906C2175140002800D0C84301F0A8FD10
:102EB000002104BD936F5B08FDD3F0B5946ED56E11
:102EC000576F166FFFF7E0FF9466D5665767166772
:102ED000F0BD0000000000D0134A936F9B0813D28E
:102EE00010665166002905D0FFE7FFE7FFE7516F45
:102EF000106F704704B5002801D00020C04301F0D6
:102F00007FFD002104BDC046936F5B08FDD3F0B583
:102F1000946ED56E576F166FFFF7E2FF9466D56615
:102F200057671667F0BD0000000000D094464E4A77
:102F3000926F9208624601D230E0C046F0B54A4E28
:102F4000B56F6D08FCD3346E756E776F366F00F019
:102F500025F89446444A14665566576716676246D4
:102F6000F0BDC0469446404A926F9208624601D234
:102F700058E0C046F0B53C4EB56F6D08FCD3346EDA
:102F8000756E776F366F00F04DF89446364A1466CA
:102F90005566576716676246F0BDC046002B24DBB6
:102FA00011D000293EDA00B5C943404200D10131B9
:102FB00000F038F8C943404200D10131DB435242AE
:102FC00000D1013300BD002AEBD1002801D1002936
:102FD00005D00020C90FC90701D1C043410800B581
:102FE00001F006FD0022002300BD00B500290ADB28
:102FF000DB43524200D1013300F014F8C943404290
:1030000000D1013100BDC943404200D10131DB4351
:10301000524200D1013300F005F8DB43524200D1A7
:10302000013300BD002923D1002B18D1002A0CD078
:10303000BC460D4F38667A6600210023FFE7FFE7A4
:10304000FFE77A6F386F67467047002801D007485E
:10305000010000B501F0CCFC0022002300BD0200FD
:103060000B00002000217047000000D0FFFFFFFF91
:10307000002B00D0BDE0130C26D1002AE7D080B48D
:10308000104F39667A66FFE7FFE730B4040C7B6FB8
:10309000396F1B0423433B66FFE7FFE7FFE7C046AA
:1030A00084B27B6F3D6F1B0423433B66FFE7FFE762
:1030B000C04600232C042D0C7A6F386F001969412B
:1030C000B0BC7047000000D0F0B594460025140E47
:1030D00001D112020835140F01D112010435940FE9
:1030E00001D192000235D40F01D152000135D40B29
:1030F0000134254F7C66254C3C660E0C93B2FFE7ED
:10310000FFE7FFE73C6F6643360C7703BE46734329
:10311000DF0B5B04C01AB941130C7343DB18C91AE7
:10312000CE086643360CB64493B273431F0F1B019F
:10313000C01AB941130C73431F0B1B05C01AB941C8
:10314000860D8F023E436643360C092D24DB520A5E
:103150007243801A7703460A6643360C16235B1BBC
:10316000DE40DF40BF1964466643821B704604356B
:1031700006330100D940A840C01900D30131A24252
:1031800006D20023F0BD0000000000D0FFFFFFFFCB
:10319000121B0130F3D3F1E709277F1BFE40644681
:1031A000A2B27243801A00D20139220C7243130C6E
:1031B0001204821A99410B0070460435133701003E
:1031C000F940A840801900D30131002B02D1A2425E
:1031D0000AD2F0BD013000D30131121BFAD2013BFB
:1031E000F8D1A24200D2F0BD013000D30131121B50
:1031F000F7E7F0B51C0C00D080E00CB400251C0AE9
:1032000004D11B02160E3343120208351C0B04D1E5
:103210001B01160F3343120104359C0B04D19B0094
:10322000960F334392000235DC0B02D192185B41BA
:1032300001351C00971864410134464F7C66464CAA
:103240003C660E0CFFE7FFE7FFE7C0463C6F6643B6
:10325000360C7703BE4697B27743C01B00D20139C4
:10326000C01B00D201399FB27743C91BC91B170C81
:1032700077437E04FF0B801BB941CE086643360CB2
:103280000C2D33DBB644120B1F053A431B0B97B2D0
:103290007743C01B00D201399FB27743C91B170C7B
:1032A00077433E043F0C801BB941860D8F023E439D
:1032B000664329277F1BFE400C3D7746AF40BF1970
:1032C00030BCA2B2ABB272437343801A9941220C54
:1032D0007243130C1204801A994102000B0001374B
:1032E000001BA941F9D2781E0021F0BD0C277F1BDD
:1032F000FE4077467F0BAF40FF19E0E700245D1CDE
:1033000007D0144F7D663966FFE7FFE7FFE7FFE769
:103310003C6F95B29EB265436643401BB141150CAC
:103320001E0C6543664336042F0C3E432D04401BA0
:10333000B141994204D202000B0020000021F0BDEF
:1033400001D19042F7D3801A994101349942F2D3C6
:10335000F6E70000000000D0FFFFFFFF48404140BB
:10336000484018B4114B5B68FC46019308BD04DF6C
:10337000E735001018B40D4B1B68FC46019308BDDF
:1033800000DFF135001018B4084BDB68FC460193F0
:1033900008BD0CDFA938001018B4044B9B68FC462C
:1033A000019308BD08DF4D3700100000380B0020E6
:1033B000FFB550404240504059404B40594000E01A
:1033C000FFB5154F4C00640D03D0BC4204D10C0373
:1033D00014D80020090D09055C00640D03D0BC421F
:1033E00004D11C030AD800221B0D1B0501264B40EB
:1033F00009D44B4003D58B4200D18242FFBD994294
:10340000FCD19042FFBD0B43DB1803431343F5D0BF
:10341000C9434918FFBD0000FF07000000B5FFF7D2
:10342000CFFF804100BDC04600B5FFF7C9FF01D9FD
:10343000002000BD012000BD00B5FFF7B9FF01D994
:10344000002000BD012000BD00B5FFF7B1FF8041A5
:1034500000BD012040054A00121804D85A00121875
:1034600001D80020704701207047002070470000FD
:103470000021002805D17047C1174840401AFAD0F2
:10348000C90713B5064B1B6898470CBC441CA240E7
:103490001005120B0349091B09051943114310BDFF
:1034A000380D00201F04000010B54C00620D802371
:1034B000D218DB00D21A5B057E2A10DD9E3A13DAA1
:1034C000CC170903490819435242D1406400013422
:1034D0001532202A05DAD0400843604310BD002091
:1034E00010BD0846604310BDC80FC018013810BD9C
:1034F00018B4044B5B6AFC46019308BD24DFD53A3F
:1035000000100000380B0020132370B51D78012D2A
:1035100010D00BDD2448FFF78DFC244C01008022E5
:10352000200000F091FB022D01D070BD1F4C204AFD
:10353000A264FAE72E001D4C1D4AA3085B421E4000
:103540001D422FD0330022602020B1006118801B63
:103550000A604A608A60CA600A614A618A61CA6117
:103560000A624A628A62CA620A634A638A63CA63F7
:103570000A644A648A64CA640A654A658A65CA65D7
:103580000A664A668A66CA660A674A674008102859
:1035900003D18A67CA67A264C7E71E339B00E25063
:1035A000A264C2E70023CFE753440000380B002099
:1035B000B535001007B5604601880A0A0230DF2AD7
:1035C000FAD1C9B2820804D30288408800041043AB
:1035D00000E00068014A5050039007BD380B0020FE
:1035E0000FB403BC0CBCF0B50124E407634000E059
:1035F000F0B50C0DCF0F661E3605891B640503D38D
:10360000C943404200D30131640D03D0661CF60A61
:1036100007D0E41B00207F00791C89078912803CB9
:1036200024031D0DDF0F6E1E36059B1B6D0503D396
:10363000DB43524200D301336D0D03D06E1CF60AFA
:1036400007D0ED1B00227F007B1C9B079B12803D57
:103650002D032F1B661B58D4A446202E46DA203794
:103660001400BC401D00BD40F24033412A43801885
:103670005941CB0F05D0C943C04300226442504199
:10368000514162464D0D28D10D0D07D100281FD0A4
:10369000241940414941013A0D0DF9D0640006D387
:1036A000013000D30131002C01D140084000013A23
:1036B0000BD4941CE40A04D112051144DB0719440D
:1036C000F0BDD907204B194300E0D9070020F0BD19
:1036D0000029DDD1002CDBD1F0BD0132C607400846
:1036E000CD0728434908002EE1D0D9E73C2E29DA3E
:1036F000203E40371400BC4000D00124F240144367
:103700001A00BB401C43D317ACE7AC46202F08DAA5
:1037100020360400B4400D00B540F840394128433C
:10372000A5E73C2F0CDA203F40360400B44000D01F
:103730000124F84004430800B1400C43C117EAE7F4
:1037400010001900002494E70000F07FF0B50C0D84
:10375000661E3605891BE60A6405640D02D0651CE9
:10376000ED0A04D0002001210905803C2403A44671
:103770001C0D671E3F05DB1BE70A6405640D02D0C4
:10378000651CED0A04D0002201231B05803C2403A4
:103790007740644497B484B296B27443070C7E4376
:1037A000150C6F4380B26843361802D30120000421
:1037B0003F183004350C00197D41844688B29AB216
:1037C00050430C0C62431F0C7C438EB27E43921913
:1037D00002D301263604A4191604170C36186741C3
:1037E00001BC81B29AB25143040C62431B0C5C438E
:1037F00080B25843121802D3012000042418100488
:10380000130C401863412D185E410020474106BC4F
:1038100088B293B258430C0C6343120C544389B2E0
:1038200051435B1802D301210904641819041A0CCE
:10383000091862416D1856410020474118BCF90231
:10384000720D1143F0026A0D1043ED020A0D03D10F
:103850006D1940414941013B124E9B1B7600B3421A
:103860000ED26D0007D30130002671416646354304
:1038700001D1400840001B05C918E4072144F0BDF0
:103880000BDA013306D1013004D101314F0D01D0E3
:103890004908F2E7E1070020F0BD013631050020BC
:1038A000EBE70000FF030000F0B51C0D671E3F05AD
:1038B000DB1BE70A6405640D02D0661CF60A04D01F
:1038C000002201231B05803C2403D0252D06002661
:1038D000F6432E661E096E66CE0FF619B4464900F1
:1038E0004F0D02D07E1CF60A03D000200021403F7D
:1038F0003F033E1BB600B444013F7F05C91B490886
:103900002E6F013676089C02950D25437543ED1305
:103910007543AD1301356D10F603761B0CB4CC0264
:10392000450D2C43A2B2B3B25A43270C7B43350C4E
:103930006F43A4B26C431B1902D3012424043F1922
:103940001C041D0CA4187D4124196D41009A91B2EC
:10395000ACB26143170C7C432B0C5F4392B25A43C9
:10396000A41802D301221204BF182204230C5218F7
:103970007B41019C6C431B19520ED9010A4344013F
:10398000A01A81B2B2B2514303145A43360C7343A6
:1039900087B27743D617D21900277E4136049B1988
:1039A0001704160C7F185E417316ED18F3010026FC
:1039B00080337541A90F06D16400690AE8055B0AE6
:1039C000184309D22FE00422944480337541A90A98
:1039D000A8059B0A184326D3404149412404009A74
:1039E000019B0D005543641B4343E41A95B286B214
:1039F0007543170C7E43030C5F4392B25A43B618CB
:103A000002D301221204BF183204330C52197B4135
:103A100052429C41002C02D4002201305141400806
:103A2000CA071043490802B06246D7079210084BF4
:103A3000D218084B9A4203D212058918C919F0BD51
:103A40000020002A01DC3900F0BD01331905F5E73B
:103A5000FD030000FE070000624618CA94460029D4
:103A60001ADAC01861415B463B415C46B44052469D
:103A7000FA40224344464D4662416B419046994686
:103A80002B46B3403D41FC401C4352465B46A2419D
:103A9000AB4192469B467047C01AA1414B463B4101
:103AA0004C46B4404246FA40224354465D46624189
:103AB0006B4192469B462B46B3403D41FC401C4324
:103AC00042464B46A241AB41904699467047002082
:103AD00000217047002200B5203200F004F80800F1
:103AE00000BD000000220B15F1D410B5944600F083
:103AF0002FF81414013400DA0021CB17134C20479F
:103B00006244343A0CD40C2A07DA04009140904005
:103B100052422032D440214310BDD843D94310BD76
:103B2000203207D40C469440524220321141D040FA
:103B3000204310BD0800C917203203D4524220325E
:103B4000104110BD1800190010BD0000013B00100D
:103B50000A0DCC0F531E1B05C91A520503D3C943C6
:103B6000404200D30131520D03D0531CDB0A07D071
:103B7000121B00206400611C89078912803A12031D
:103B8000014BD21A70470000FF030000132310B549
:103B900012481C78FFF74EF90100012C0AD003DD12
:103BA00080220F4800F050F80E48FFF73BF90E4B0B
:103BB000186010BD0A4C5422200000F045F80B4B51
:103BC0006365A365E36523666366A366E3662367AF
:103BD0006367A367E3672362E361E5E75346000099
:103BE000380C00204C330000380D0020F13B001051
:103BF00007B5604601880A0A0230DF2AFAD1C9B245
:103C0000820804D3028840880004104300E0006862
:103C1000014A5050039007BD380C002010B500F049
:103C200079FA10BD10B500F03BFA10BD014804212F
:103C3000014B1847F0010020452E0010014B1B6876
:103C400018470000F0010020014B5B681847000096
:103C5000F0010020F8B54746CE460D0080B51600AD
:103C60000700002A20DD4B1E98461A4B0024002036
:103C70009946002C2BD043461B5D0D3B5A425341C5
:103C8000DBB22A5D0A2A13D00134A642F1DC864257
:103C900003DD311A3B6828189847AD19013D2B7890
:103CA0000D3B5A4253413B740CBC90469946F8BDBB
:103CB000002BE9D1A04203DA211A3B682818984763
:103CC000484602213B68013498472000DDE73B7CF1
:103CD000D7E7C0464C4D0010F8B54746CE460C001D
:103CE000096880B50700802907D04B1C2360641841
:103CF00027710CBC90469946F8BD134B1D68002DEA
:103D00001BD0124B9846231D994602E0ED68002D0A
:103D100013D02E68002EF9D043461B68002B01D02B
:103D20009D42F3D16B7C2268002B09D028004946C4
:103D3000FFF790FFED68002DEBD101230021D5E7BF
:103D400011004846B047E1E7000B0020040B0020BB
:103D5000F0B557464546DE464E46D023E0B51B0635
:103D60001C68374B83B007000D00180001A990466E
:103D70009A4600F04DFE8146002807D1019B9C42E7
:103D800004D0504600F04CFE012399466B1C03D131
:103D9000380000F0AFFC05002A4B1C68002C2FD027
:103DA0000A23294E9B4602E0E468002C28D02268B2
:103DB000002AF9D03368002B01D0A342F4D1637CF0
:103DC000002B2AD02A0039002000FFF743FF43468A
:103DD000002BE9D06B465A461A71637C002B20D029
:103DE000237C002B26D00121236801A898476B462D
:103DF0001B790D3B5A4253412374E468002CD6D101
:103E00004B46002B12D1681E8541E8B203B03CBC82
:103E100090469946A246AB46F0BD2900380090472F
:103E2000D5E70121236801A89847BDE7504600F077
:103E3000D7FDE8E70221054823689847D7E7C04641
:103E4000580A0020000B0020040B00204C4D0010ED
:103E500010B582B06B4604000022D81D0121047009
:103E6000FFF776FF200002B010BDC04670B5040019
:103E700000F040FC0122010005002000FFF768FF70
:103E8000084B1C68002C06D06368002B05D09847AF
:103E9000E468002CF8D1280070BDE468002CF3D150
:103EA000F9E7C046000B00200D4A1368002B13D021
:103EB000834202D109E0984208D01A00DB68002B47
:103EC000F9D1002900D0D06070471A000029FBD139
:103ED000DB68D360C160F7E70029F5D01060F3E735
:103EE000000B0020F0B54646D6464F46D023C0B55D
:103EF0001B061F68314BA2B004000D00180001A979
:103F0000984600F085FD061E06D1019B9F4203D016
:103F1000404600F085FD01368422002101A8FFF70C
:103F20008DFE2B002200264801A9FEF74BFF019BC6
:103F30000700002B15D1234B1C68002C06D06368AA
:103F4000002B0CD09847E468002CF8D1002E2FD11C
:103F5000380022B01CBC90469946A246F0BDE468E9
:103F6000EBE7184B1D689A46002D25D0164B994655
:103F700002E0ED68002D13D02C68002CF9D04B46E0
:103F80001B68002B01D09D42F3D16B7C019A002B62
:103F90000AD0280002A9FFF75DFEED68002DEBD1E5
:103FA000534601951C68C8E7110002A8A047E0E746
:103FB000404600F015FDCBE70195C7E7580A002001
:103FC000D93C0010000B0020040B00200FB400B5FA
:103FD00083B004A901C90191FFF784FF03B008BCB5
:103FE00004B0184710B500F03BF810BDF0B500293B
:103FF00010D045180D272021094B0A4A00269E5F44
:104000000478A64207D093691942FCD101301460AC
:10401000A842F5D1F0BD93691942FCD11760F2E7CF
:10402000340B00200040034030B50500002000297B
:1040300010DD1024094A013D93691C4208D101306A
:1040400093691C42FCD113682B548142F4D130BDDA
:104050000028FCD103204042F9E7C046004003405D
:10406000E12110B50A4B49021B780A4B0A481B781C
:10407000FCF704FA02210020FCF796F90221012046
:10408000FCF792F901210548FFF70EFF10BDC0466D
:10409000A84D0010AC4D001000400340000200206D
:1040A00010B5044B0A001B680100180000F004F86A
:1040B00010BDC0461802002010B5514300F03EF874
:1040C000041E0ED00300083B5A6803239A43043AA7
:1040D000242A15D80300132A05D800221A605A6032
:1040E0009A60200010BD00210833016041601B2A46
:1040F000F3D98160C160242A06D003001033ECE7B5
:104100000021FFF79BFDECE70300016118334161DB
:10411000E3E7C04610B5034B0100186800F00EF845
:1041200010BDC0461802002010B5034B01001868EE
:1041300000F064FB10BDC04618020020F0B55746E1
:104140004546DE464E46E0B50D000B3583B0070010
:10415000162D22D8102900D9BBE000F0B5FA1025A1
:1041600018230220D14EF3181A005C68083A9442D2
:1041700000D1BEE0032362689A431300E268A1689D
:10418000CA6091600122E318596838000A435A60F6
:1041900000F09CFA200008309EE007239D4300D5E4
:1041A00097E0A94200D994E000F08EFAF823FF339B
:1041B0009D4200D8ADE1680A00D194E0042800D9FE
:1041C00080E138239846A80980443930C100B74EB1
:1041D00071180839CC68A14218D0032362689A4349
:1041E0001300521B0F2A00DD36E1002AC6DA032332
:1041F0009C4608E06246636893435A1B0F2A00DD21
:104200002AE1002ABADAE468A142F3D13200346923
:104210000832944200D177E00323616899438946CC
:104220000B00491B0F2900DD77E172613261002923
:10423000A8DA9F4A914500D910E1DA0801239110CC
:104240008B40D200716892190B4391687360E260F1
:10425000A1609460CC60012182109140994259D8AC
:104260000B4205D103229043490004300B42FBD09E
:1042700003239846C3009946B144CC468246634620
:10428000DC68A44507D129E1002A00DB32E1E468BB
:10429000A44500D122E14246636893435A1B0F2A8A
:1042A000F2DD01208046611905436560A068E5687C
:1042B0000836C560A8604046F160B16010434860B0
:1042C000CE608E603800E25000F000FA2000083026
:1042D00002E00C2300203B6003B03CBC90469946B2
:1042E000A246AB46F0BD80213F238900402098467E
:1042F0006DE7DC680230A34200D03BE7320034694E
:104300000832944200D087E70121736882109140FF
:104310009942A5D90323B46862689A439046AA4299
:1043200003D3531B0F2B00DD88E023004344614A75
:104330000193614B93469A4612681B68EB18013251
:1043400000D139E15D4A944663441B0B1B03009383
:104350000099380000F0BCF903008146013300D118
:10436000F6E0019B834200D9F0E051464968009B8A
:104370008C46514663444B6001991A00494500D16F
:104380004FE15B461B68013300D154E14B46019974
:104390005B1A9A1853465A6007234A461A400192FC
:1043A00000D113E108214B4689469B1A9944009994
:1043B000434B49449B1A5B1A1B051B0D00913800A7
:1043C00019009B4600F084F9431C00D14FE14B4695
:1043D000C01A03005B440093534652465B680121B8
:1043E0005B4453604A464846B260009A0A434260C2
:1043F000B44200D123E142460F2A00D821E1072030
:104400000C3A824360680140052011436160A118A5
:10441000486088600F2A00D934E14A464C46526809
:104420005146C96A994201D25146CB625146096B45
:10443000994200D38EE051460B638BE001222900A4
:1044400013431143651961603800B5606B6000F07B
:104450003DF9200008303FE74046D7E65A0A042AD3
:104460006ED9142A00D9C1E011005C325B31D20050
:1044700008235B429C46B218944463469A6803231F
:104480009846944500D19AE043465168994349457E
:1044900002D992689445F7D1D3689C467368614607
:1044A000A260E1608C60D460D5E6C0465006002072
:1044B000FF01000048060020900A00200F100000B5
:1044C00008100000142852D9542800D996E06E2311
:1044D0009846280B80446F30C10078E608239B463D
:1044E000073BDC449B46DA4443465246134200D025
:1044F000C5E64CE00122E318596838000A435A60C7
:10450000E368A268D3609A6000F0E0F82000083009
:10451000E2E62B00E808083324E6012360191D4376
:10452000656070613061C26082601A004B460A4368
:1045300042603800E15000F0C9F820000830CBE6B6
:104540009A09110039323831D20091E7B44260D073
:10455000B468626803239A43531BAA4202D30F2B09
:1045600000DD6BE7380000F0B1F80020B4E65B2313
:10457000984680445C30C10029E608235B429C4693
:10458000E1444B469B6801384B4500D097E04346D9
:104590000342F2D173688B4373604900994200D99A
:1045A000B8E6002904D1B5E6042294464900E24465
:1045B0000B42F9D050465DE610330093C8E68910EF
:1045C000023B8B4071680B43736068E7009B3800C7
:1045D0004B441B055B421B0D19009B4600F078F80D
:1045E000431C00D0F3E600239B46F5E6542A2AD864
:1045F0001A0B11006F326E31D20039E7AA235B002B
:1046000098422AD8DD3B9846E80B80447830C100B8
:10461000DDE553465B68009A9C46534662445A6007
:10462000AFE6090500D0ACE6009AB4684244013117
:104630000A436260F4E65B464A461A60ACE64C46C2
:10464000EEE641608EE7AA2149008A4224D8DA0BBF
:10465000110078327731D2000AE71A4B984224D8F9
:104660007C239846A80C80447D30C100AFE5009AB9
:10467000019B94464A46083B63449B1A00930023DF
:104680009B46A9E621003800083100F0B7F85346F0
:10469000B4685B686268C3E60A498A420BD89A0C20
:1046A00011007D327C31D200E2E6FE217E238900BA
:1046B0007F2098468BE5FE227E219200D8E6736823
:1046C0006BE7C046540500007047C0467047C046BF
:1046D000002370B5064C050008002360FCF7E0FCE1
:1046E000431C00D070BD2368002BFBD02B60F9E782
:1046F0003C0D002010B5830727D00378002B26D06F
:104700000300032102E01A78002A1CD001330B4277
:10471000F9D119680F4A104C8A188A4322420FD1E6
:10472000043319680B4A8A188A43224208D1043399
:104730001968084A8A188A432242F1D000E00133FE
:104740001A78002AFBD1181A10BD0300E1E70020F7
:10475000FAE7C046FFFEFEFE80808080F8B50C00C0
:104760000600FFF7B1FF204FBB685D6803239D4340
:104770001E4B2C1B9C466444240B1D4B013C240304
:104780009C4207DD00213000FFF7A2FFBB685B19E8
:10479000984204D03000FFF799FF0020F8BD614235
:1047A0003000FFF795FF431C0DD00122BB682D1B85
:1047B00015435D600F4B30001A68141B1C60FFF737
:1047C00085FF0120EAE700213000FFF781FFBA688A
:1047D000831A0F2BDEDD08490968401A0549086075
:1047E00001210B435360D5E750060020EF0F000076
:1047F000FF0F0000940A002048060020F0B5D646BE
:104800004F4646460500C0B50C1E5CD0FFF75CFF66
:10481000210008394F6801243B000322A343C81834
:1048200046689643B146664EB268824200D175E052
:104830004A464260821894463C4229D10F68C91BFF
:104840008A68DB19904662465768082294462740DA
:10485000B444BA46E04556D0CA68944642466746D4
:10486000D7606246474697605246002A13D101221C
:104870004B44CF18BC468468524F1A43BC4200D107
:104880007AE0C068E06084604A606246136005E0D8
:1048900057682742EBD01C434C6003604A4A93425E
:1048A00016D8DB08FF3A9810FF3A82407068DB00A8
:1048B000024372609E19B368CE608B60B160D960AC
:1048C0002800FFF703FF1CBC90469946A246F0BDA6
:1048D0005C0A042C3AD89C09200039343830E400B2
:1048E0003419083CA268032794423ED05068B8436C
:1048F000984202D992689442F8D1D468CC608A6018
:10490000A160D160DCE7002F55D1C2684B448068BC
:104910001C43C26090604C60CB50D1E74B443C429A
:1049200006D10A68891A88689B18CA68C2609060B4
:1049300001221A434A60254AB16012689A42BFD8E0
:10494000234B28001968FFF709FFB9E7142C07D992
:10495000542C19D81C0B20006F346E30E400BFE7D4
:1049600020005C345B30E400BAE701238010834010
:10497000706803437360C1E7E160A1604A6062460A
:10498000CC608C6013609BE7AA204000844205D86D
:10499000DC0B200078347730E400A1E70D48844236
:1049A00005D89C0C20007D347C30E40098E7FE2480
:1049B0007E20A40094E71C434C60036080E7C0465F
:1049C0005006002058060020FF0100004C06002081
:1049D000900A002054050000F8B5C0460000000011
:1049E00001B40248844601BC604700BF5D0100205D
:1049F00001B40248844601BC604700BF8501002025
:104A000001B40248844601BC604700BF8501002014
:104A100001B40248844601BC604700BF1101002078
:104A200001B40248844601BC604700BFC1000020B9
:104A300041206C6974746C65206578747261000043
:104A400054686520636F6D6D6F6E207468696E6762
:104A50002069732025640A005468652062696E61CC
:104A60007279206C6F63616C207468696E6720696D
:104A7000732025640A0000004861726477617265E2
:104A800020616C61726D20256420616C72656164C7
:104A90007920636C61696D65640000000A2A2A2A26
:104AA0002050414E4943202A2A2A0A004861726454
:104AB0002061737365727400666E6900666E692B9F
:104AC000000000006E616E00666E692D000000003F
:104AD000862300103A2300103A2300107E23001092
:104AE0003A2300103A2300103A2300103A23001012
:104AF0003A2300103A2300103A23001076230010C6
:104B00003A2300106E2300103A2300103A230010BD
:104B1000662300100A2500109E2300101A2500109D
:104B20009E2300108E2300109E2300109E23001051
:104B30009E2300109E2300109E2300109E23001031
:104B40009E230010B02300109E2300109E2300100F
:104B50009E2300109E2300109E230010B0230010FF
:104B6000FA250010F6220010F6220010F62200109E
:104B7000F6220010F6220010F6220010F622001095
:104B8000F6220010F6220010F6220010F622001085
:104B9000F6220010F6220010F6220010F622001075
:104BA000F6220010F6220010F6220010F622001065
:104BB000F6220010F6220010F6220010F622001055
:104BC000F6220010F6220010F6220010F622001045
:104BD000F6220010F6220010F6220010F622001035
:104BE000B827001026250010B8270010F622001064
:104BF000F6220010F6220010F6220010F622001015
:104C0000F6220010F6220010F6220010F622001004
:104C1000F6220010F6220010F6220010F6220010F4
:104C2000F6220010F6220010F62200105224001086
:104C3000F6220010F6220010F6220010F6220010D4
:104C4000F6220010F6220010F6220010F6220010C4
:104C5000F622001052240010A62500105224001045
:104C6000B827001026250010B8270010F6220010E3
:104C700052240010F6220010F6220010F622001036
:104C8000F6220010F6220010522400105A250010BF
:104C9000F6220010F622001024260010F622001042
:104CA00052240010F6220010F622001052240010A8
:104CB000000000000000F03F000000000000244061
:104CC00000000000000059400000000000408F403C
:104CD000000000000088C34000000000006AF840A7
:104CE0000000000080842E4100000000D0126341CB
:104CF0000000000084D797410000000065CDCD4141
:104D000052656C6561736500312E302E30000000F5
:104D10007069636F000000006275696C645F7661A2
:104D20007269616E743200004A616E203330203245
:104D30003032310006005250BBFF3CB6104D00101F
:104D400006005250D3F07542004D00100D0A0000CD
:104D50005541525420737464696E00005541525499
:104D6000207374646F7574005541525420737464D9
:104D7000696E202F207374646F75740006005250A2
:104D800053B4F4A1684D0010080052509200000086
:104D9000E8010010DC010010D0010010344D0010BB
:104DA000C4010010404D00107C4D0010884D0010D3
:104DB00010B502680024EFF3108172B61368002B5F
:104DC000FCD0BFF35F8F0379002B0BD00368BFF3D8
:104DD0005F8F1C6081F3108820BF0268EFF31081A1
:104DE00072B6EBE701220271D022120612684271FC
:104DF0000268BFF35F8F136081F3108810BDC04657
:104E0000030010B50068EFF3108472B60268002A40
:104E1000FCD0BFF35F8F1A79002A0DD0002913D080
:104E2000052200209A560A601B68BFF35F8F00229C
:104E30001A6084F3108810BD01321A71D022120654
:104E4000126801205A71EFE70020EDE70268EFF3E6
:104E5000108172B61368002BFCD0BFF35F8F002364
:104E6000037140BF0268BFF35F8F136081F3108846
:104E70007047C0467047C0461000000000000000A8
:104E8000000001000000000000000000000002001F
:104E9000000000000000000000000300000000000F
:104EA000000000000000FF000000000000B548689E
:104EB00001318E460047704609380149884700BDD8
:104EC000D9160010000000000000000000000000E3
:104ED000503300004C3300005433000052330000C4
:104EE0004D5300004D430000533400004334000094
:104EF000ED3F0010000000002940001000000000FD
:104F0000000100000000000020020020000000005E
:104F1000000000000C05002074050020DC050020C6
:104F20000000000000000000000000000000000081
:104F30000000000000000000000000000000000071
:104F40000000000000000000000000000000000061
:104F50000000000000000000000000000000000051
:104F60000000000000000000000000000000000041
:104F70000000000000000000000000000000000031
:104F80000000000000000000000000000000000021
:104F90000000000000000000000000000000000011
:104FA0000000000000000000000000000000000001
:104FB00000000000000000000100000000000000F0
:104FC0000E33CDAB34126DE6ECDE05000B000000B5
:104FD00000000000000000000000000000000000D1
:104FE00000000000000000000000000000000000C1
:104FF00000000000000000000000000000000000B1
:1050000000000000000000000000000000000000A0
:105330000000000000000000FFFFFFFF000002006F
:105340000000000000000000500600205006002071
:105350005806002058060020600600206006002045
:1053600068060020680600207006002070060020F5
:1053700078060020780600208006002080060020A5
:105380008806002088060020900600209006002055
:105390009806002098060020A0060020A006002005
:1053A000A8060020A8060020B0060020B0060020B5
:1053B000B8060020B8060020C0060020C006002065
:1053C000C8060020C8060020D0060020D006002015
:1053D000D8060020D8060020E0060020E0060020C5
:1053E000E8060020E8060020F0060020F006002075
:1053F000F8060020F8060020000700200007002023
:1054000008070020080700201007002010070020D0
:105410001807002018070020200700202007002080
:105420002807002028070020300700203007002030
:1054300038070020380700204007002040070020E0
:105440004807002048070020500700205007002090
:105450005807002058070020600700206007002040
:1054600068070020680700207007002070070020F0
:1054700078070020780700208007002080070020A0
:105480008807002088070020900700209007002050
:105490009807002098070020A0070020A007002000
:1054A000A8070020A8070020B0070020B0070020B0
:1054B000B8070020B8070020C0070020C007002060
:1054C000C8070020C8070020D0070020D007002010
:1054D000D8070020D8070020E0070020E0070020C0
:1054E000E8070020E8070020F0070020F007002070
:1054F000F8070020F807002000080020000800201E
:1055000008080020080800201008002010080020CB
:10551000180800201808002020080020200800207B
:10552000280800202808002030080020300800202B
:1055300038080020380800204008002040080020DB
:10554000480800204808002050080020500800208B
:10555000580800205808002060080020600800203B
:1055600068080020680800207008002070080020EB
:10557000780800207808002080080020800800209B
:10558000880800208808002090080020900800204B
:105590009808002098080020A0080020A0080020FB
:1055A000A8080020A8080020B0080020B0080020AB
:1055B000B8080020B8080020C0080020C00800205B
:1055C000C8080020C8080020D0080020D00800200B
:1055D000D8080020D8080020E0080020E0080020BB
:1055E000E8080020E8080020F0080020F00800206B
:1055F000F8080020F8080020000900200009002019
:1056000008090020080900201009002010090020C6
:105610001809002018090020200900202009002076
:105620002809002028090020300900203009002026
:1056300038090020380900204009002040090020D6
:105640004809002048090020500900205009002086
:105650005809002058090020600900206009002036
:1056600068090020680900207009002070090020E6
:105670007809002078090020800900208009002096
:105680008809002088090020900900209009002046
:105690009809002098090020A0090020A0090020F6
:1056A000A8090020A8090020B0090020B0090020A6
:1056B000B8090020B8090020C0090020C009002056
:1056C000C8090020C8090020D0090020D009002006
:1056D000D8090020D8090020E0090020E0090020B6
:1056E000E8090020E8090020F0090020F009002066
:1056F000F8090020F8090020000A0020000A002014
:10570000080A0020080A0020100A0020100A0020C1
:10571000180A0020180A0020200A0020200A002071
:10572000280A0020280A0020300A0020300A002021
:10573000380A0020380A0020400A0020400A0020D1
:10574000480A0020480A0020000000000000000075
:105750002D3C0010152E0010093500108D3B001057
:045760004D030010E5
:0400000510000105E1
:00000001FF
